S0110000636F6E746163746F722E7372656346
S315080000000050002001A50008C11E0008C51E0008F2
S31508000010C91E0008CD1E0008D11E000800000000F9
S315080000200000000000000000000000003170000819
S31508000030D51E000800000000D170000815710008E0
S3150800004049A5000849A5000849A5000849A50008CA
S3150800005049A5000849A5000849A5000849A50008BA
S3150800006049A5000849A5000849A50008D91E0008A1
S3150800007049A5000849A50008E91E0008F91E000858
S3150800008049A5000849A5000849A50008091F000850
S31508000090191F0008291F000849A5000849A50008D6
S315080000A049A5000849A5000849A5000849A500086A
S315080000B0391F000849A5000849A5000849A50008F0
S315080000C049A5000849A5000849A5000849A500084A
S315080000D049A50008491F000849A50008591F000836
S315080000E049A5000849A5000849A500080000000020
S315080000F000000000000000000000000000000000F2
S3110800010000000000000000005FF808F195
S3150800011010B5054C237833B9044B13B10448AFF333
S3150800012000800123237010BDB809002000000000DC
S3150800013020E40008084B10B51BB108490848AFF37E
S3150800014000800848036803B910BD074B002BFBD095
S31508000150BDE81040184700BF00000000BC09002099
S3150800016020E40008B809002000000000844641EA9F
S31508000170000313F0030349D1403A23D30B68036005
S315080001804B6843608B688360CB68C3600B69036107
S315080001904B6943618B698361CB69C3610B6A0362EF
S315080001A04B6A43628B6A8362CB6AC3620B6B0363D7
S315080001B04B6B43638B6B8363CB6BC36340304031BC
S315080001C0403ADBD230320BD30B6803604B6843608E
S315080001D08B688360CB68C36010301031103AF3D255
S315080001E00C3205D351F8043B40F8043B043AF9D2E3
S315080001F0043208D0D2071CBF11F8013B00F8013BB6
S3150800020001D30B8803806046704700BF082A13D3C2
S315080002108B07B1D010F00303AED0C3F10403D21A92
S31508000220DB071CBF11F8013B00F8013BA4D331F8EA
S31508000230023B20F8023B9FE7043AD9D3013A11F86A
S31508000240013B00F8013BF9D20B7803704B784370F9
S315080002508B7883706046704781F0004102E000BFEA
S3150800026083F0004330B54FEA41044FEA430594EA68
S31508000270050F08BF90EA020F1FBF54EA000C55EAA3
S31508000280020C7FEA645C7FEA655C00F0E2804FEA74
S315080002905454D4EB5555B8BF6D420CDD2C4480EA56
S315080002A0020281EA030382EA000083EA010180EA86
S315080002B0020281EA0303362D88BF30BD11F0004FD4
S315080002C04FEA01314FF4801C4CEA113102D040420A
S315080002D061EB410113F0004F4FEA03334CEA133345
S315080002E002D0524263EB430394EA050F00F0A7805D
S315080002F0A4F10104D5F1200E0DDB02FA0EFC22FA58
S3150800030005F2801841F1000103FA0EF2801843FA4B
S3150800031005F359410EE0A5F120050EF1200E012A3C
S3150800032003FA0EFC28BF4CF0020C43FA05F3C0187A
S3150800033051EBE37101F0004507D54FF0000EDCF1F3
S31508000340000C7EEB00006EEB0101B1F5801F1BD39C
S31508000350B1F5001F0CD349085FEA30004FEA3C0CA0
S3150800036004F101044FEA445212F5800F80F09A8096
S31508000370BCF1004F08BF5FEA500C50F1000041EB9A
S31508000380045141EA050130BD5FEA4C0C404141EB9E
S31508000390010111F4801FA4F10104E9D191F0000FC5
S315080003A004BF01460020B1FA81F308BF2033A3F148
S315080003B00B03B3F120020CDA0C3208DD02F1140C3F
S315080003C0C2F10C0201FA0CF021FA02F10CE002F17A
S315080003D01402D8BFC2F1200C01FA02F120FA0CFC73
S315080003E0DCBF41EA0C019040E41AA2BF01EB0451BC
S315080003F0294330BD6FEA04041F3C1CDA0C340EDCBA
S3150800040004F11404C4F1200220FA04F001FA02F3FC
S3150800041040EA030021FA04F345EA030130BDC4F1BA
S315080004200C04C4F1200220FA02F001FA04F340EAAF
S315080004300300294630BD21FA04F0294630BD94F060
S31508000440000F83F4801306BF81F480110134013D47
S315080004504EE77FEA645C18BF7FEA655C29D094EAB8
S31508000460050F08BF90EA020F05D054EA000C04BF36
S315080004701946104630BD91EA030F1EBF0021002021
S3150800048030BD5FEA545C05D14000494128BF41F0C0
S31508000490004130BD14F580043CBF01F5801130BD24
S315080004A001F0004545F0FE4141F470014FF00000AF
S315080004B030BD7FEA645C1ABF194610467FEA655C60
S315080004C01CBF0B46024650EA013406BF52EA033502
S315080004D091EA030F41F4002130BD00BF90F0000FF0
S315080004E004BF0021704730B54FF4806404F132042C
S315080004F04FF000054FF0000150E700BF90F0000FE5
S3150800050004BF0021704730B54FF4806404F132040B
S3150800051010F0004548BF40424FF000013EE700BFDB
S3150800052042004FEAE2014FEA31014FEA02701FBF6B
S3150800053012F07F4393F07F4F81F06051704792F03D
S31508000540000F14BF93F07F4F704730B54FF46074B7
S3150800055001F0004521F0004120E700BF50EA010202
S3150800056008BF704730B54FF000050AE050EA0102AF
S3150800057008BF704730B511F0004502D5404261EB1F
S3150800058041014FF4806404F132045FEA915C3FF460
S31508000590DCAE4FF003025FEADC0C18BF03325FEAF9
S315080005A0DC0C18BF033202EBDC02C2F1200300FAAE
S315080005B003FC20FA02F001FA03FE40EA0E0021FAD3
S315080005C002F11444C1E600BF70B54FF0FF0C4CF4BD
S315080005D0E06C1CEA11541DBF1CEA135594EA0C0F73
S315080005E095EA0C0F00F0DEF82C4481EA030621EAAE
S315080005F04C5123EA4C5350EA013518BF52EA0335E9
S3150800060041F4801143F4801338D0A0FB02CE4FF09A
S315080006100005E1FB02E506F00042E0FB03E54FF0CA
S315080006200006E1FB03569CF0000F18BF4EF0010EC2
S31508000630A4F1FF04B6F5007F64F5407404D25FEABE
S315080006404E0E6D4146EB060642EAC62141EA555171
S315080006504FEAC52040EA5E504FEACE2EB4F1FD0CB3
S3150800066088BFBCF5E06F1ED8BEF1004F08BF5FEA31
S31508000670500E50F1000041EB045170BD06F00046E3
S3150800068046EA010140EA020081EA0301B4EB5C0490
S31508000690C2BFD4EB0C0541EA045170BD41F4801188
S315080006A04FF0000E013C00F3AB8014F1360FDEBFAD
S315080006B0002001F0004170BDC4F10004203C35DA89
S315080006C00C341BDC04F11404C4F1200500FA05F30C
S315080006D020FA04F001FA05F240EA020001F00042AD
S315080006E021F0004110EBD37021FA04F642EB060123
S315080006F05EEA430E08BF20EAD37070BDC4F10C044D
S31508000700C4F1200500FA04F320FA05F001FA04F210
S3150800071040EA020001F0004110EBD37041F10001FC
S315080007205EEA430E08BF20EAD37070BDC4F1200507
S3150800073000FA05F24EEA020E20FA04F301FA05F26F
S3150800074043EA020321FA04F001F0004121FA04F217
S3150800075020EA020000EBD3705EEA430E08BF20EAE7
S31508000760D37070BD94F0000F0FD101F00046400021
S3150800077041EB010111F4801F08BF013CF7D041EAA3
S31508000780060195F0000F18BF704703F000465200A7
S3150800079043EB030313F4801F08BF013DF7D043EA78
S315080007A00603704794EA0C0F0CEA135518BF95EA2E
S315080007B00C0F0CD050EA410618BF52EA4306D1D1B5
S315080007C081EA030101F000414FF0000070BD50EAD4
S315080007D0410606BF1046194652EA430619D094EA5E
S315080007E00C0F02D150EA013613D195EA0C0F05D148
S315080007F052EA03361CBF104619460AD181EA03019C
S3150800080001F0004141F0FE4141F470014FF0000053
S3150800081070BD41F0FE4141F4780170BD70B54FF0EE
S31508000820FF0C4CF4E06C1CEA11541DBF1CEA13556E
S3150800083094EA0C0F95EA0C0F00F0A7F8A4EB050450
S3150800084081EA030E52EA03354FEA013100F0888047
S315080008504FEA03334FF0805545EA131343EA126310
S315080008604FEA022245EA111545EA10654FEA0026C5
S315080008700EF000419D4208BF964244F1FD0404F57E
S31508000880407402D25B084FEA3202B61A65EB0305DA
S315080008905B084FEA32024FF480104FF4002CB6EB97
S315080008A0020E75EB030E22BFB61A754640EA0C0017
S315080008B05B084FEA3202B6EB020E75EB030E22BF57
S315080008C0B61A754640EA5C005B084FEA3202B6EB98
S315080008D0020E75EB030E22BFB61A754640EA9C0057
S315080008E05B084FEA3202B6EB020E75EB030E22BF27
S315080008F0B61A754640EADC0055EA060E18D04FEAE5
S31508000900051545EA16754FEA06164FEAC30343EA84
S3150800091052734FEAC2025FEA1C1CC0D111F4801F51
S315080009200BD141EA00014FF000004FF0004CB6E74A
S3150800093011F4801F04BF01430020B4F1FD0C88BFE9
S31508000940BCF5E06F3FF6AFAEB5EB030C04BFB6EBF4
S31508000950020C5FEA500C50F1000041EB045170BDE7
S315080009600EF0004E4EEA113114EB5C04C2BFD4EB14
S315080009700C0541EA045170BD41F480114FF0000E98
S31508000980013C90E645EA060E8DE60CEA135594EA14
S315080009900C0F08BF95EA0C0F3FF43BAF94EA0C0F17
S315080009A00AD150EA01347FF434AF95EA0C0F7FF48C
S315080009B025AF104619462CE795EA0C0F06D152EAE0
S315080009C003353FF4FDAE1046194622E750EA4106C4
S315080009D018BF52EA43067FF4C5AE50EA41047FF4D5
S315080009E00DAF52EA43057FF4EBAE12E74FF0FF3C3A
S315080009F006E000BF4FF0010C02E000BF4FF0010C0B
S31508000A004DF804CD4FEA410C7FEA6C5C4FEA430C83
S31508000A1018BF7FEA6C5C1BD001B050EA410C0CBFD2
S31508000A2052EA430C91EA030F02BF90EA020F002034
S31508000A30704710F1000F91EA030F58BF994208BF9B
S31508000A4090422CBFD8176FEAE37040F00100704758
S31508000A504FEA410C7FEA6C5C02D150EA013C07D1AF
S31508000A604FEA430C7FEA6C5CD6D152EA033CD3D0FA
S31508000A705DF8040B704700BF8446104662468C46F4
S31508000A801946634600E000BF01B5FFF7B7FF002827
S31508000A9048BF10F1000F01BD4DF808EDFFF7F4FF50
S31508000AA00CBF012000205DF808FB00BF4DF808EDDB
S31508000AB0FFF7EAFF34BF012000205DF808FB00BFFE
S31508000AC04DF808EDFFF7E0FF94BF012000205DF820
S31508000AD008FB00BF4DF808EDFFF7CEFF94BF0120D5
S31508000AE000205DF808FB00BF4DF808EDFFF7C4FFCE
S31508000AF034BF012000205DF808FB00BF4FEA410C17
S31508000B007FEA6C5C02D150EA013C0AD14FEA430CF9
S31508000B107FEA6C5C02D152EA033C02D14FF0000036
S31508000B2070474FF0010070474FEA410212F5001274
S31508000B3015D211D56FF47873B3EB625212D94FEA16
S31508000B40C12343F0004343EA505311F0004F23FA00
S31508000B5002F018BF404270474FF00000704750EA55
S31508000B60013005D111F0004008BF6FF00040704712
S31508000B704FF00000704700BF4A0011D212F500126C
S31508000B8011D20DD56FF47873B3EB62520ED44FEAD7
S31508000B90C12343F0004343EA505323FA02F0704757
S31508000BA04FF00000704750EA013002D14FF0FF3095
S31508000BB070474FF0000070474FEA4102B2F1E04338
S31508000BC024BFB3F5001CDCF1FE5C0DD901F0004C26
S31508000BD04FEAC0024CEA5070B2F1004F40EB830076
S31508000BE008BF20F00100704711F0804F21D113F1A2
S31508000BF03872BCBF01F00040704741F480114FEADB
S31508000C005252C2F11802C2F1200C10FA0CF320FA63
S31508000C1002F018BF40F001004FEAC1234FEAD32380
S31508000C2003FA0CFC40EA0C0023FA02F34FEA4303EA
S31508000C30CCE77FEA625307D150EA01331EBF4FF073
S31508000C40FE4040F44000704701F0004040F0FE408E
S31508000C5040F40000704700BF80F0004002E000BF8B
S31508000C6081F0004142001FBF5FEA410392EA030F89
S31508000C707FEA226C7FEA236C6AD04FEA1262D2EBD3
S31508000C801363C1BFD218414048404140B8BF5B42D8
S31508000C90192B88BF704710F0004F40F4000020F071
S31508000CA07F4018BF404211F0004F41F4000121F087
S31508000CB07F4118BF494292EA030F3FD0A2F10102D1
S31508000CC041FA03FC10EB0C00C3F1200301FA03F10F
S31508000CD000F0004302D5494260EB4000B0F5000F32
S31508000CE013D3B0F1807F06D340084FEA310102F1F1
S31508000CF00102FE2A51D2B1F1004F40EBC25008BFA3
S31508000D0020F0010040EA03007047490040EB00006C
S31508000D1010F4000FA2F10102EDD1B0FA80FCACF19B
S31508000D20080CB2EB0C0200FA0CF0AABF00EBC2509A
S31508000D3052421843BCBFD0401843704792F0000F88
S31508000D4081F4000106BF80F400000132013BB5E7DB
S31508000D504FEA41037FEA226C18BF7FEA236C21D051
S31508000D6092EA030F04D092F0000F08BF08467047B6
S31508000D7090EA010F1CBF0020704712F07F4F04D184
S31508000D80400028BF40F00040704712F100723CBF97
S31508000D9000F50000704700F0004343F0FE4040F4C1
S31508000DA0000070477FEA226216BF08467FEA23637F
S31508000DB00146420206BF5FEA412390EA010F40F46A
S31508000DC0800070474FF0000304E000BF10F00043B6
S31508000DD048BF40425FEA000C08BF704743F096439D
S31508000DE001464FF000001CE050EA010208BF7047B8
S31508000DF04FF000030AE000BF50EA010208BF70473F
S31508000E0011F0004302D5404261EB41015FEA010C53
S31508000E1002BF84460146002043F0B64308BFA3F14B
S31508000E208053A3F50003BCFA8CF2083AA3EBC2532D
S31508000E3010DB01FA02FC634400FA02FCC2F120024C
S31508000E40BCF1004F20FA02F243EB020008BF20F083
S31508000E500100704702F1200201FA02FCC2F12002E9
S31508000E6050EA4C0021FA02F243EB020008BF20EADE
S31508000E70DC70704753B94AB9002908BF00281CBF5F
S31508000E804FF0FF314FF0FF3000F082B9ADF1080C9A
S31508000E906DE904CE00F006F8DDF804E0DDE902238A
S31508000EA004B070472DE9F04F8C460C460546099E5E
S31508000EB0002B4FD18A4217466BD9B2FA82FEBEF191
S31508000EC0000F0BD0CEF1200520FA05F501FA0EF336
S31508000ED045EA030C02FA0EF700FA0EF5390CBCFBCC
S31508000EE0F1F0BAB201FB10C300FB02F84FEA154C49
S31508000EF04CEA0344A04509D9E41900F1FF3380F010
S31508000F002881A04540F2258102383C44C8EB0404F8
S31508000F10B4FBF1F301FB134C03FB02F2ACB244EA57
S31508000F200C418A4209D9C91903F1FF3480F00F81AF
S31508000F308A4240F20C81023B39448A1A43EA00404D
S31508000F400021002E63D022FA0EF2002386E80C0058
S31508000F50BDE8F08F8B4207D9002E56D0002186E8CF
S31508000F6011000846BDE8F08FB3FA83F1002940F076
S31508000F709380A34202D3824200F2FE80851A64EB74
S31508000F8003039C460120002E41D086E82010BDE8C8
S31508000F90F08F12B90127B7FBF2F7B7FA87FEBEF151
S31508000FA0000F36D1E41B4FEA17481FFA87F90121CB
S31508000FB0B4FBF8F308FB134409FB03F24FEA154C9C
S31508000FC04CEA0444A24207D9E41903F1FF3002D2DD
S31508000FD0A24200F2D3800346A41AB4FBF8F008FB39
S31508000FE0104809FB00F9ACB244EA0842914507D912
S31508000FF0D21900F1FF3402D2914500F2BA80204698
S31508001000C9EB020240EA03409BE731463046BDE899
S31508001010F08F07FA0EF7CEF1200C24FA0CF34FEAFC
S315080010201748B3FBF8FA1FFA87F908FB1A3520FAAE
S315080010300CFC04FA0EF40AFB09FB4CEA040C4FEA12
S315080010401C4242EA05439B4500FA0EF50AD9DB190C
S315080010500AF1FF3280F08B809B4540F28880AAF126
S31508001060020A3B44CBEB0303B3FBF8F008FB10334F
S3150800107000FB09F41FFA8CFC4CEA03439C4207D98F
S31508001080DB1900F1FF326ED29C426CD902383B4420
S315080010901C1B40EA0A418BE7C1F1200E8B4022FA5D
S315080010A00EFC4CEA030C24FA0EF74FEA1C49B7FB70
S315080010B0F9FA1FFA8CF309FB1A7720FA0EF88C4016
S315080010C00AFB03F548EA04044FEA144848EA0747C6
S315080010D0BD4202FA01F200FA01FB09D917EB0C0727
S315080010E00AF1FF3041D2BD423FD9AAF1020A67444C
S315080010F07F1BB7FBF9F509FB157705FB03F3A4B2CC
S3150800110044EA0747BB4208D917EB0C0705F1FF303D
S3150800111027D2BB4225D9023D674445EA0A40A0FBCF
S315080011200289FF1A4F4545464C4614D329D066B363
S31508001130BBEB050367EB040707FA0EFECB40CF406F
S315080011404EEA030386E888000021BDE8F08F2346AF
S31508001150F3E61846DAE6B8EB020569EB0C04013843
S31508001160E5E70546D9E7104692E78246C0E7924684
S3150800117078E702383A4443E7084604E7023B3C442A
S315080011802AE7C345E7D33C46D1E73146BDE8F08FA9
S31508001190704700BF2DE9F04188B0002404940594F7
S315080011A0069407942A4B9A6942F010029A619A6942
S315080011B002F010020092009A9A6942F020029A619F
S315080011C09A6902F020020192019A9A6942F0040291
S315080011D09A619A6902F004020292029A9A6942F0A6
S315080011E008029A619B6903F008030393039BDFF8DF
S315080011F06C8022464FF4C041404602F02BFA154E49
S3150800120022464FF40071304602F024FA4FF4C043E8
S3150800121004930125059506940227079704A94046D5
S3150800122002F024F92A2304930594069504A90A488A
S3150800123002F01CF94FF4007304930595069407977A
S3150800124004A9304602F012F908B0BDE8F08100BFE3
S3150800125000100240000C0140000801400010014047
S3150800126000B583B0124B5A6942F001025A615B69B4
S3150800127003F001030193019B002205210B2002F0D4
S315080012807BFB0B2002F0AAFB002205210E2002F0B0
S3150800129073FB0E2002F0A2FB002205210F2002F0AC
S315080012A06BFB0F2002F09AFB03B05DF804FB00BF4E
S315080012B000100240000000002DE9F04F8BB06021BD
S315080012C0974806F02BFC099010B90B2006F0AAFEE9
S315080012D0322005F01FFD934BD3F8E81001F5947101
S315080012E08BA3D3E90023D1E90001FFF7DFFB10B197
S315080012F0302006F097FE8B4BD3F8E81001F598716D
S3150800130083A3D3E90023D1E90001FFF7CFFB10B18E
S31508001310312006F087FE844BD3F800A000244FF452
S315080013207A7005F0F7FC4FF40051804802F098F9FE
S3150800133004F1010B22467E4909A806F03FFC7D4AC6
S3150800134009A97D4B186807F0EBF97C4A09A97C4B7B
S31508001350186807F0E5F97B4A09A97B4B186807F076
S31508001360DFF97A4A09A97A4B186807F0D9F9794A50
S3150800137009A9794B186807F0D3F9784A09A9784B6F
S31508001380186807F0CDF9774A09A9774B186807F066
S31508001390C7F905F005FE0446FFF714FDFFF7C0F888
S315080013A00022724BFFF710F9C4F5E15302935AA3D2
S315080013B0D3E90023FFF732FACDE9000123464FF4BB
S315080013C0E1526B4909A806F0F9FB002407E0694BCE
S315080013D053F82420684909A806F0F0FB0134052CC7
S315080013E0F5DD504BD3F8E840D4F80001FFF776F85E
S315080013F006460F46D4F8E030D4F804415868FFF79B
S315080014007DF802460B4630463946FFF707FACDE91E
S3150800141000012246594909A806F0D0FB584909A8EF
S3150800142006F0CCFB002415E03E4BD3F8E81004EB9D
S31508001430840213010B44D3F82C02FFF74FF800225D
S31508001440504BFFF7C1F802460B464F4909A806F06C
S31508001450B5FB0134052CE7DD4C4909A806F0AEFBBF
S31508001460304DD5F8E84004F59473D3E9006704F5E0
S315080014709873D3E90089D4F80401FFF72FF8CDE96A
S315080014800601D4F80001FFF729F802460B46DDE904
S315080014900601FFF7C3F902460B4640464946FFF7E1
S315080014A093F802460B4630463946FEF7D9FED4E98C
S315080014B00823FEF7D7FE06460F46D4F83C01FFF789
S315080014C00DF8D4F80C310393314B1B6802930022B4
S315080014D04FF07C53FFF778F8CDE9000132463B46DA
S315080014E02C4909A806F06AFBB5F89831B5F8D01169
S315080014F0B5F808020C4C226801900091CAEB02026A
S31508001500254909A806F05AFBD4F800A000255DE095
S315080015109A9999999999B93F000000000020BC4012
S3150800152090310020A03700208C37002000100140A1
S3150800153008E500082CE50008E02F00203CE5000837
S31508001540E42E00204CE50008F83200205CE500088F
S315080015500C3300206CE50008683300207CE50008A1
S31508001560A83A00208CE50008882F00200000594082
S31508001570A0E5000850330020DCE50008E4E5000893
S31508001580F4E500080000503F2CE600088CE8000847
S315080015907837002034E6000864E60008EA00521BA3
S315080015A0D300A44C1C4404F5C073D3E90067B4F80F
S315080015B09801FEF793FF02460B4630463946FFF779
S315080015C003F804F5C474C4E900010135022DE5DD0C
S315080015D0984C2546F5E9602304F5F871D1E9000130
S315080015E0CDE9020104F5DC71D1E90001CDE900017C
S315080015F0914909A806F0E2FAD4F800320093D4F823
S31508001600C831D4F890218D4909A806F0D7FAD4F83C
S3150800161004320093D4F8CC31D4F89421884909A827
S3150800162006F0CCFAB4F89821B4F8D031B4F8081218
S315080016300091844909A806F0C1FA04F5C473D3E9F0
S31508001640002304F5FC71D1E90001CDE9020104F596
S31508001650E071D1E90001CDE900017B4909A806F04E
S31508001660ADFAD4F82490B4F89881D5E900674046D5
S31508001670FEF734FFD4F8005102460B463046394689
S31508001680FEF7A2FFCDE90401CDF808804846FEF72B
S3150800169047FFCDE900012A466C4909A806F08EFAEB
S315080016A0B4F80832D4F80C21694909A806F086FA74
S315080016B0684909A806F082FAD4F8E83003F5E0721A
S315080016C0D2E9006703F5E473D3E90001CDE9000127
S315080016D032463B46604909A806F070FAD4F8E81085
S315080016E0D1F8D431D1F8D021D1F8D81100915B497D
S315080016F009A806F063FAD4F8E83003F5E472D2E9EB
S315080017000067D3F8D801FEF7F9FE32463B46FEF7E6
S315080017105BFF00224FF07C53FEF756FF02460B464E
S315080017204F4909A806F04AFA4E4B1B684E4A1268FA
S315080017304E4909A806F042FAD4F8E830D3F8D83169
S31508001740D4F804214A4909A806F038FAD4F8E8502A
S31508001750D5F8A4814046FEF7C1FE00224FF07C531F
S31508001760FEF732FF05F5C873D3E90023FEF72CFF11
S3150800177006460F46D5F8A02105F58873D3E900017A
S31508001780CDE9020105F5CC75D5E90001CDE90001E1
S315080017904346384909A806F011FAD4F8E810D1F8F2
S315080017A00031D1F80C21CDE9026701F5C871D1E9FC
S315080017B00001CDE90001304909A806F0FFF9D4F87F
S315080017C0E850D5F874814046FEF788FE00224FF0AF
S315080017D07C53FEF7F9FE05F5B073D3E90023FEF74F
S315080017E0F3FE06460F46D5F8702105F58873D3E94A
S315080017F00001CDE9020105F5B475D5E90001CDE989
S31508001800000143461D4909A806F0D8F9D4F8E8109E
S31508001810D1F80031D1F80C21CDE9026701F5B07194
S31508001820D1E90001CDE90001154909A806F0C6F974
S315080018305C4674E5A037002088E60008A4E60008A0
S31508001840B8E60008CCE60008E0E60008FCE6000872
S3150800185038E7000860E7000894E70008B4E70008DE
S31508001860D8E700087033002080370020E8E7000832
S3150800187000E8000820E800085CE8000890E800088E
S31508001880D0E8000808B50368B3F1804F01D101F02C
S3150800189067F908BD08B5024B188806F0C3FB08BDF2
S315080018A00000002008B54FF4DF720F4B1A800F486E
S315080018B00F4B036004234360002383604FF080725C
S315080018C0C2604FF4302202614FF48002426103760F
S315080018D043768376C3760377437702F0E9FB08B14C
S315080018E0FFF7D8FF08BD00BF000000206C300020BD
S315080018F00064004008B540F2B9120B4B1A800B4839
S315080019000B4B03604FF4E133436000238360C360ED
S315080019100361042242618361C36103F0CDF808B113
S31508001920FFF7B8FF08BD00BF0000002028300020E0
S315080019300048004008B54FF4DD720B4B1A800B487F
S315080019400B4B03604FF4E133436000238360C360AD
S3150800195003610C2242618361C36103F0ADF808B1EB
S31508001960FFF798FF08BD00BF000000209031002057
S315080019700038014000B585B040F2BF12314B1A80DD
S3150800198000230193029303932F48304A02604FF4D1
S31508001990807282600122C26043614FF46022C26194
S315080019A043600623036102F085FA08B1FFF772FF68
S315080019B000230193012302930323039301A92248D9
S315080019C002F0D2F808B1FFF765FF022301930293EC
S315080019D001A91D4802F0C8F808B1FFF75BFF042308
S315080019E001930323029301A9174802F0BDF808B131
S315080019F0FFF750FF07230193042302930DEB03011E
S31508001A00114802F0B1F808B1FFF744FF102301931B
S31508001A10052302930723039301A90B4802F0A4F8B0
S31508001A2008B1FFF737FF112301930623029301A993
S31508001A30054802F099F808B1FFF72CFF05B05DF8E4
S31508001A4004FB00BF000000201C31002000240140D8
S31508001A5000B58FB040F2BB12264B1A8000230A93BA
S31508001A600B930C930D930893099301930293039395
S31508001A7004930593069307931F48204A0260436020
S31508001A80836043F63F02C2600361836100F0B4FEDF
S31508001A9008B1FFF7FFFE0EA94FF4805341F8103D39
S31508001AA0154800F025FD08B1FFF7F4FE124800F0CE
S31508001AB0DBFE08B1FFF7EEFE00230893099308A999
S31508001AC00D4801F00DF808B1FFF7E4FE6023019315
S31508001AD00023029303930593082201A9064800F000
S31508001AE03FFF08B1FFF7D6FE034800F03BFB0FB0F7
S31508001AF05DF804FB00000020E82F002000080040E5
S31508001B0000B595B040F2BD123E4B1A8000231093E3
S31508001B101193129313930E930F93079308930993B4
S31508001B200A930B930C930D930093019302930393DB
S31508001B300493059306933448344A026048F6A04253
S31508001B4042608360C36003614361836100F054FEB1
S31508001B5008B1FFF79FFE14A94FF4805341F8103DD2
S31508001B60294800F0C5FC08B1FFF794FE264800F0A6
S31508001B705FFE08B1FFF78EFE00230E930F930EA9A2
S31508001B80214800F0ADFF08B1FFF784FE0022079256
S31508001B90089209920A920B920C920D9207A91A487A
S31508001BA000F0AEFE08B1FFF775FE042207A9164835
S31508001BB000F0A6FE08B1FFF76DFE082207A9124835
S31508001BC000F09EFE08B1FFF765FE0C2207A90E4835
S31508001BD000F096FE08B1FFF75DFE0023009301931F
S31508001BE00293039304934FF40052059206936946B1
S31508001BF0054800F049FF08B1FFF74CFE15B05DF83F
S31508001C0004FB00BF0000002020320020002C014009
S31508001C1000B58FB04FF4DE72274B1A8000230A9363
S31508001C200B930C930D9308930993019302930393D3
S31508001C3004930593069307932048214A026043605C
S31508001C40836043F63F02C2600361836100F0D4FDFE
S31508001C5008B1FFF71FFE0EA94FF4805341F8103D57
S31508001C60164800F045FC08B1FFF714FE134800F0CB
S31508001C70FBFD08B1FFF70EFE00230893099308A998
S31508001C800E4800F02DFF08B1FFF704FE602301930C
S31508001C90002302930393059304220DEB02010748E0
S31508001CA000F05EFE08B1FFF7F5FD044800F05AFAA9
S31508001CB00FB05DF804FB00BF00000020983000203C
S31508001CC00004004000B595B0282200210DEB020063
S31508001CD008F048FF00230593069307930893099392
S31508001CE0019302930393049301220A924FF48033DB
S31508001CF00B930E920222119212934FF4E013139350
S31508001D000AA800F055FF08B1FFF7C4FD0F23059395
S31508001D1002210691002307934FF4806208920993E3
S31508001D2005A801F07DF908B1FFF7B4FD0223019378
S31508001D304FF40043039301A801F08AFA08B1FFF7AC
S31508001D40A9FD15B05DF804FB30B589B000F0F6FEC4
S31508001D5005F076FBFFF7B6FFFFF71CFAFFF780FAE8
S31508001D60FFF7A0FDFFF7C6FDFFF7E4FDFFF702FE4C
S31508001D70FFF76EFEFFF7C4FEFFF74AFF494B5B6AA3
S31508001D805BB1484B5B6A13F4003F03D03D2006F075
S31508001D9049F902E03E2006F045F901AC424D0FCD67
S31508001DA00FC495E8070084E80700002101A804F09D
S31508001DB07BFF3E4B1860002005F0CEFA10B91120C3
S31508001DC006F030F901221021394805F08FFA00286B
S31508001DD002DA012006F026F900221021354805F01E
S31508001DE085FA002802DA022006F01CF905F0C8FE7A
S31508001DF0012006F033F810B9152006F013F9202152
S31508001E00012005F069FB2C4B1B6813B9332006F03B
S31508001E1009F9402320220021224805F015FC274B0A
S31508001E20186010B9072006F0FDF8244B1B6893F9D3
S31508001E30B030002B02DA4D2006F0F4F80F221949CB
S31508001E40012005F0DBFD012802D1092006F0EAF899
S31508001E50012008F003FA10B9122006F0E3F803206F
S31508001E6006F044FB10B9132006F0DCF81021134BDA
S31508001E70186806F00DFA10B9102006F0D3F8094CC8
S31508001E801321204602F0A2FB204602F039FA02206E
S31508001E9006F02AFC10B9142006F0C4F804F0FEFE79
S31508001EA0FEE700BF6C30002038E40008E02F002071
S31508001EB09031002028300020F8320020D43100204C
S31508001EC0704700BFFEE700BFFEE700BFFEE700BFA2
S31508001ED0FEE700BF704700BF08B5024801F098FC4E
S31508001EE008BD00BFD831002008B5024801F090FCB3
S31508001EF008BD00BFD830002008B5024801F088FCAC
S31508001F0008BD00BF4C31002008B5024802F080FB2E
S31508001F1008BD00BF6C30002008B5024802F078FB07
S31508001F2008BD00BF6C30002008B5024802F070FBFF
S31508001F3008BD00BF6C30002008B5024800F06AFBF7
S31508001F4008BD00BF6832002008B5024802F09EFFAF
S31508001F5008BD00BF9031002008B5024802F096FF80
S31508001F6008BD00BF2830002000B583B0114B9A6920
S31508001F7042F001029A619A6902F001020092009AFF
S31508001F80DA6942F08052DA61DB6903F08053019323
S31508001F90019B00220F216FF0010001F0EDFC064ABB
S31508001FA0536823F0E06343F00073536003B05DF8B1
S31508001FB004FB00BF001002400000014010B586B0C7
S31508001FC00023029303930493059302681D4B9A42D8
S31508001FD035D1044603F56C439A6942F400729A6156
S31508001FE09A6902F400720092009A9A6942F0040211
S31508001FF09A619B6903F004030193019B952302935D
S315080020000323039302A9104801F030FA0F48104B36
S3150800201003600023436083608022C2604FF48072AD
S3150800202002614FF48062426120228261C36101F03D
S3150800203031FB08B1FFF72EFC044B23625C6206B045
S3150800204010BD00BF0024014000080140D83100201F
S315080020500800024030B587B0002302930393049327
S3150800206005930268224B9A4240D103F5D633DA69C2
S3150800207042F00072DA61DA6902F000720092009AA0
S315080020809A6942F004029A619B6903F0040301937A
S31508002090019B06AC4FF4006344F8103D154D2146EC
S315080020A0284601F0E3F94FF4805302930223039381
S315080020B0032305932146284601F0D8F90022062174
S315080020C0132001F059FC132001F088FC0022062198
S315080020D0142001F051FC142001F080FC0022062196
S315080020E0152001F049FC152001F078FC07B030BD39
S315080020F0006400400008014084B00368154A934212
S315080021000AD1154B9A6942F400629A619B6903F4F5
S3150800211000630193019B1AE0104A93420AD10E4BC1
S31508002120DA6942F00202DA61DB6903F0020302931C
S31508002130029B0CE00A4A934209D1074BDA6942F03E
S315080021400402DA61DB6903F004030393039B04B01A
S31508002150704700BF002C01400010024000040040F8
S315080021600008004000B587B0002302930393049348
S31508002170059303681C4A93421CD11C4B9A6942F08A
S3150800218008029A619B6903F008030093009B2023C9
S31508002190029302230393059302A9154801F066F9F1
S315080021A0144A536823F4406343F0E06343F400633E
S315080021B0536016E0104A934213D10C4B9A6942F0C9
S315080021C008029A619B6903F008030193019B4FF487
S315080021D08073029302230393059302A9044801F02E
S315080021E045F907B05DF804FB000400400010024002
S315080021F0000C0140000001400008004070B588B09E
S315080022000023049305930693079303684A4A934267
S315080022105BD10446494B9A6942F480429A619A69AD
S3150800222002F480420092009A9A6942F004029A6186
S315080022309B6903F004030193019B4FF40073049315
S3150800224002230593032307933D4E04A9304601F064
S315080022500DF94FF48063049300250595069504A9A6
S31508002260304601F003F93748374B0360456085600F
S315080022708023C3600561456120238361C56101F040
S3150800228009FA08B1FFF706FB2E4B63635C622F4819
S315080022902F4B036010234360002383608022C260B3
S315080022A0036143618361C36101F0F4F908B1FFF783
S315080022B0F1FA264B23635C6200220A21252001F0ED
S315080022C05BFB252001F08AFB33E0224A934230D19A
S315080022D01A4BDA6942F48022DA61DA6902F480225A
S315080022E00292029A9A6942F008029A619B6903F07F
S315080022F008030393039B4FF4806304930223059317
S3150800230003230793144D04A9284601F0AFF84FF4A8
S315080023100063049300240594069404A9284601F052
S31508002320A5F822460921272001F026FB272001F0DF
S3150800233055FB08B070BD00BF0038014000100240D0
S31508002340000801404C31002058000240D8300020D7
S315080023504400024000480040000C014070B4036A83
S3150800236023F001030362036A4668826922F0730256
S315080023700C6842EA040523F002028B6813430C4CEE
S31508002380A04205D123F00803CA68134323F00403C7
S31508002390074CA04205D126F440764A6932438E6935
S315080023A01643466085614A684263036270BC70479B
S315080023B0002C014030B4036A23F480730362036A75
S315080023C04568C26922F073020C68224323F400733D
S315080023D08C6843EA04230E4CA04206D123F400631A
S315080023E0CC6843EA042323F48063094CA04207D14E
S315080023F025F440554C6945EA04158C6945EA0415E7
S315080024004560C2614A68C263036230BC704700BF58
S31508002410002C014030B4036A23F480530362036A34
S315080024204468C26922F4E6420D6842EA052223F4AA
S3150800243000538D6843EA0533074DA84204D124F4B6
S3150800244080444D6944EA85144460C2614A6802645E
S31508002450036230BC704700BF002C014010B4036A09
S31508002460046A24F001040462846924F0F00444EA4E
S31508002470021223F00A0319438261016210BC7047F5
S3150800248010B4036A23F0100303628469036A24F410
S31508002490704444EA023223F0A00343EA0111826140
S315080024A0016210BC704700BF836823F0700341F0D7
S315080024B007010B438360704710B4846824F47F4493
S315080024C042EA0323194344EA0103836010BC7047B8
S315080024D00268D36843F00103D3600268136843F0C7
S315080024E00103136000207047704700BF704700BFA4
S315080024F090F83C30012B00F0838010B50446012388
S3150800250080F83C30022380F83D300268936823F453
S315080025107F4323F0770393600B68402B4CD00AD88F
S31508002520102B58D002D8002B50D062E0202B57D061
S31508002530302B5AD05DE0702B12D004D8502B27D000
S31508002540602B2FD055E0B3F5805F03D0B3F5005F5D
S3150800255012D04EE00268936823F00703936048E0C0
S31508002560CB684A6889680068FFF7A6FF22689368FF
S3150800257043F0770393603CE0CB684A688968006853
S31508002580FFF79AFF2268936843F48043936030E02C
S31508002590CA6849680068FFF761FF50212068FFF79D
S315080025A083FF26E0CA6849680068FFF769FF60216B
S315080025B02068FFF779FF1CE0CA6849680068FFF7DA
S315080025C04DFF40212068FFF76FFF12E000210068E9
S315080025D0FFF76AFF0DE010210068FFF765FF08E0C6
S315080025E020210068FFF760FF03E030210068FFF74D
S315080025F05BFF012384F83D30002084F83C0010BDC1
S3150800260002207047704700BF704700BF704700BF81
S31508002610704700BF10B5044603681A6912F0020F26
S3150800262017D0DA6812F0020F13D06FF002021A619F
S315080026300123037703689B6913F0030F02D0FFF7A2
S31508002640E3FF04E0FFF7DEFF2046FFF7DFFF002386
S31508002650237723681A6912F0040F19D0DA6812F082
S31508002660040F15D06FF004021A610223237723683A
S315080026709B6913F4407F03D02046FFF7C5FF05E0AA
S315080026802046FFF7BFFF2046FFF7C0FF002323774A
S3150800269023681A6912F0080F19D0DA6812F0080FC1
S315080026A015D06FF008021A61042323772368DB69C3
S315080026B013F0030F03D02046FFF7A6FF05E02046D8
S315080026C0FFF7A0FF2046FFF7A1FF00232377236823
S315080026D01A6912F0100F19D0DA6812F0100F15D017
S315080026E06FF010021A61082323772368DB6913F455
S315080026F0407F03D02046FFF787FF05E02046FFF717
S3150800270081FF2046FFF782FF0023237723681A6993
S3150800271012F0010F09D0DA6812F0010F05D06FF038
S3150800272001021A612046FFF7ADF823681A6912F00C
S31508002730800F09D0DA6812F0800F05D06FF080029A
S315080027401A61204600F0F8F923681A6912F0400F5A
S3150800275009D0DA6812F0400F05D06FF040021A610E
S315080027602046FFF755FF23681A6912F0200F09D093
S31508002770DA6812F0200F05D06FF020021A612046A1
S3150800278000F0D8F910BD00BF03681A4A90420AD073
S31508002790B0F1804F07D0A2F59432904203D002F5EB
S315080027A08062904203D123F070034A681343114AAA
S315080027B090420AD0B0F1804F07D0A2F594329042E9
S315080027C003D002F58062904203D123F44073CA68AD
S315080027D0134323F080034A69134303608B68C3627B
S315080027E00B688362034B984201D10B69036301238B
S315080027F043617047002C0140B8B110B5044690F803
S315080028003D3013F0FF0F04D1002380F83C30FFF76A
S3150800281073FC022384F83D30211D2068FFF7B4FFBE
S31508002820012384F83D30002010BD0120704700BF09
S31508002830B8B110B5044690F83D3013F0FF0F04D137
S31508002840002380F83C30FFF74FFE022384F83D3022
S31508002850211D2068FFF798FF012384F83D300020EA
S3150800286010BD0120704700BFB8B110B5044690F8F6
S315080028703D3013F0FF0F04D1002380F83C30FFF7FA
S3150800288035FE022384F83D30211D2068FFF77CFFC2
S31508002890012384F83D30002010BD0120704700BF99
S315080028A030B4036A23F010030362036A446882693A
S315080028B022F4E6420D6842EA052223F020038D68D9
S315080028C043EA05130D4DA84206D123F08003CD68CF
S315080028D043EA051323F04003084DA84207D124F420
S315080028E040644D6944EA85048D6944EA8504446078
S315080028F082614A688263036230BC7047002C0140DB
S3150800290090F83C30012B28D010B50446012380F8F6
S315080029103C30022380F83D300C2A17D8DFE802F055
S31508002920071616160B1616160F1616161300006837
S31508002930FFF714FD0AE00068FFF7B2FF06E000683B
S31508002940FFF738FD02E00068FFF764FD012384F80D
S315080029503D30002084F83C0010BD0220704700BFBF
S3150800296038B590F83C30012B66D00D460446012355
S3150800297080F83C30022380F83D300C2A55D8DFE831
S3150800298002F0075454541A5454542E5454544100C3
S315080029900068FFF7E3FC2268936943F00803936134
S315080029A02268936923F004039361226891692B696D
S315080029B00B43936139E00068FFF772FF2268936959
S315080029C043F4006393612268936923F480639361F7
S315080029D022689369296943EA0123936125E000681F
S315080029E0FFF7E8FC2268D36943F00803D36122683D
S315080029F0D36923F00403D3612268D1692B690B4399
S31508002A00D36112E00068FFF705FD2268D36943F435
S31508002A100063D3612268D36923F48063D361226893
S31508002A20D369296943EA0123D361012384F83D3038
S31508002A30002084F83C0038BD022038BD10B40123BC
S31508002A4003FA01F4036A23EA04030362036A8A4069
S31508002A501A43026210BC704710B50446012200688A
S31508002A60FFF7ECFF2368074A934203D15A6C42F4F6
S31508002A7000425A642268136843F001031360002079
S31508002A8010BD00BF002C014090F83C30012B25D02A
S31508002A90012380F83C30CB6823F440728B681343DB
S31508002AA023F480624B68134323F400620B681343D4
S31508002AB023F480520B69134323F400524B691343E2
S31508002AC023F480438A69134323F4004313430268BB
S31508002AD05364002380F83C3018467047022070473C
S31508002AE090F83C30012B21D030B4012280F83C20EC
S31508002AF0022380F83D300468636823F0700363603E
S31508002B00046865680B682B4363600468A36823F050
S31508002B108003A3600468A5684B682B43A36080F80C
S31508002B203D20002380F83C30184601E0022070471B
S31508002B3030BC7047704700BF704700BF08B5074AEA
S31508002B40136843F010031360032000F003FF00200E
S31508002B5000F090FFFFF708FA002008BD00200240A9
S31508002B60034A1368034909780B441360704700BF8A
S31508002B706432002002000020014B1868704700BF2D
S31508002B806432002082B0084B1B68084AA2FB032364
S31508002B905B0A00FB03F0019000BF019B5A1E0192DD
S31508002BA0002BF9D102B0704704000020D34D621003
S31508002BB070B582B00446036813F0010F6BD0A84BBA
S31508002BC05B6803F00C03042B0AD0A54B5B6803F083
S31508002BD00C03082B0DD1A24B5B6813F4803F08D079
S31508002BE09F4B1B6813F4003F55D06368002B52D1E6
S31508002BF0B8E16368B3F5803F05D1994A136843F491
S31508002C008033136026E063B903F1804303F5043388
S31508002C101A6822F480321A601A6822F480221A602E
S31508002C2018E0B3F5A02F0CD103F18043A3F53C338C
S31508002C301A6842F480221A601A6842F480321A60CE
S31508002C4008E0874B1A6822F480321A601A6822F460
S31508002C5080221A6063687BB1FFF78EFF054605E0A0
S31508002C60FFF78AFF401B642800F27E817C4B1B68B5
S31508002C7013F4003FF4D00EE0FFF77EFF054605E0AB
S31508002C80FFF77AFF401B642800F27081744B1B68BB
S31508002C9013F4003FF4D1236813F0020F50D0704BA1
S31508002CA05B6813F00C0F0AD06D4B5B6803F00C03DE
S31508002CB0082B16D16A4B5B6813F4803F11D1684B19
S31508002CC01B6813F0020F03D02369012B40F05081D3
S31508002CD0634A136823F0F803616943EAC103136082
S31508002CE02EE02369D3B101225E4B1A60FFF744FF39
S31508002CF0054605E0FFF740FF401B022800F23A812F
S31508002D00574B1B6813F0020FF4D0554A136823F08B
S31508002D10F803616943EAC103136011E00022514BCD
S31508002D201A60FFF729FF054605E0FFF725FF401B58
S31508002D30022800F221814A4B1B6813F0020FF4D1D6
S31508002D40236813F0080F29D0A369ABB10122464BBB
S31508002D501A60FFF711FF054605E0FFF70DFF401B58
S31508002D60022800F20B813E4B5B6A13F0020FF4D087
S31508002D700120FFF707FF11E000223B4B1A60FFF71F
S31508002D80FBFE054605E0FFF7F7FE401B022800F2AA
S31508002D90F780334B5B6A13F0020FF4D1236813F004
S31508002DA0040F00F089802E4BDB6913F0805F0BD18E
S31508002DB02B4BDA6942F08052DA61DB6903F0805303
S31508002DC00193019B012500E00025284B1B6813F49D
S31508002DD0807F13D1254A136843F480731360FFF785
S31508002DE0CBFE064605E0FFF7C7FE801B642800F207
S31508002DF0C9801E4B1B6813F4807FF4D0E368012B4F
S31508002E0005D1174A136A43F00103136222E063B936
S31508002E1003F1804303F504331A6A22F001021A62A9
S31508002E201A6A22F004021A6214E0052B09D10C4B27
S31508002E301A6A42F004021A621A6A42F001021A6217
S31508002E4008E0074B1A6A22F001021A621A6A22F08F
S31508002E5004021A62E368CBB1FFF78EFE06460FE05E
S31508002E6000100240000042428004424200700040C6
S31508002E70FFF782FE801B41F28833984200F2848075
S31508002E80494B1B6A13F0020FF2D00FE0FFF774FEEE
S31508002E90064606E0FFF770FE801B41F2883398422B
S31508002EA074D8414B1B6A13F0020FF3D125B13E4A81
S31508002EB0D36923F08053D361E369002B68D03A4A7B
S31508002EC0526802F00C02082A64D0022B37D100227D
S31508002ED0364B1A60FFF750FE054604E0FFF74CFE36
S31508002EE0401B022858D8304B1B6813F0007FF5D1D9
S31508002EF0236AB3F5803F06D12B494B6823F4003289
S31508002F00A36813434B602848436823F47411236A63
S31508002F10626A13430B4343600122244B1A60FFF78E
S31508002F202BFE044604E0FFF727FE001B022835D8CF
S31508002F301D4B1B6813F0007FF5D0002031E00022FE
S31508002F401A4B1A60FFF718FE044604E0FFF714FE52
S31508002F50001B022824D8144B1B6813F0007FF5D1F8
S31508002F6000201EE001201CE003201AE0032018E0E0
S31508002F70012016E0032014E0032012E0032010E0ED
S31508002F8003200EE003200CE003200AE0032008E0FB
S31508002F90002006E0012004E0032002E0032000E010
S31508002FA0032002B070BD00BF00100240600042421C
S31508002FB030B486B0164D02AC28686968AA68EB6812
S31508002FC00FC42B8AADF80430124B5B6803F00C0271
S31508002FD0082A19D1C3F3834206A90A4412F8100C29
S31508002FE013F4803F0CD00B4B5B68C3F340430B4490
S31508002FF013F8142C084B03FB00F0B0FBF2F004E0C6
S31508003000064B03FB00F000E0034806B030BC7047EF
S3150800301054E400080010024000127A0000093D003E
S3150800302070B5654B1B6803F007038B420BD2624AE7
S31508003030136823F007030B431360136803F00703B1
S31508003040994240F0A880036813F0020F17D013F0D6
S31508003050040F04D0594A536843F4E0635360036885
S3150800306013F0080F04D0554A536843F4605353606D
S31508003070524C636823F0F0028368134363600D467D
S315080030800446036813F0010F4DD04268012A05D1A2
S315080030904A4B1B6813F4003F0DD17EE0022A05D186
S315080030A0464B1B6813F0007F05D178E0434B1B683D
S315080030B013F0020F75D041494B6823F003031343FD
S315080030C04B60FFF759FD06466368012B0ED106E0F3
S315080030D0FFF752FD801B41F28833984263D8374B7D
S315080030E05B6803F00C03042BF2D11CE0022B15D10C
S315080030F006E0FFF741FD801B41F28833984254D819
S315080031002E4B5B6803F00C03082BF2D10BE0FFF79C
S3150800311033FD801B41F28833984248D8274B5B68B9
S3150800312013F00C0FF3D1244B1B6803F007039D42E1
S315080031300AD2214A136823F007032B431360136846
S3150800314003F007039D4234D1236813F0040F06D019
S315080031501A494B6823F4E062E36813434B6023681B
S3150800316013F0080F07D0154A536823F460532169F2
S3150800317043EAC1035360FFF71BFF104B5B68C3F3B9
S3150800318003130F4AD35CD8400E4B1860002000F09A
S3150800319071FC002070BD012070BD012070BD0120AA
S315080031A070BD012070BD032070BD032070BD0320D3
S315080031B070BD012070BD00BF002002400010024013
S315080031C010E9000804000020014B1868704700BF8A
S315080031D00400002008B5FFF7F7FF044B5B68C3F34C
S315080031E00223034AD35CD84008BD00BF0010024042
S315080031F020E9000808B5FFF7E7FF044B5B68C3F34F
S31508003200C223034AD35CD84008BD00BF0010024061
S3150800321020E900080F2303600B4B5A6802F00302EB
S3150800322042605A6802F0F00282605A6802F4E0626C
S31508003230C2605B68DB0803F4E0630361034B1B6849
S3150800324003F007030B60704700100240002002409D
S3150800325070B582B00446036813F0010F5CD03E4B8C
S31508003260DB6913F0805F0BD13B4BDA6942F0805281
S31508003270DA61DB6903F080530193019B012600E0C4
S315080032800026364B1B6813F4807F12D1334A136825
S3150800329043F480731360FFF76FFC054604E0FFF7FD
S315080032A06BFC401B64284FD82C4B1B6813F4807F9B
S315080032B0F5D0294B1B6A13F4407321D0626802F4D7
S315080032C0407293421CD0244A136A23F4407024495E
S315080032D001250D6000250D60106213F0010F0FD057
S315080032E0FFF74AFC054606E0FFF746FC401B41F29D
S315080032F0883398422AD8184B1B6A13F0020FF3D06A
S3150800330015490B6A23F44072636813430B621EB1B6
S31508003310CB6923F08053CB61236813F0020F06D0E4
S315080033200D494B6823F44042A36813434B60236856
S3150800333013F0100F0CD008494B6823F48002E36899
S3150800334013434B60002004E0032002E0032000E062
S31508003350002002B070BD00BF00100240007000409F
S315080033604004424270B586B006463B4D02AC28681A
S315080033706968AA68EB680FC42B8AADF80430022E78
S315080033804ED0102E02D0012E55D12DE0334B5A685F
S315080033901B6813F0807F50D0C2F3834306A90B4401
S315080033A013F8103C12F480320ED02C494968C1F348
S315080033B0404106A8014411F8140C4AB1284AB2FB48
S315080033C0F0F000FB03F004E0264800FB03F000E001
S315080033D00020224B5B6813F4800F3AD14000224B41
S315080033E0A3FB0030400834E01C4B1B6A40F2023253
S315080033F01A40B2F5817F22D003F44073B3F5007FFB
S3150800340004D1164A526A12F0020F1BD1B3F5407F57
S315080034101BD1124B1B6813F4003F18D1002018E08B
S31508003420FFF7E8FE0D4B5B68C3F3813301335B009E
S31508003430B0FBF3F00DE000200BE0002009E04FF4AC
S31508003440004006E049F6404003E0002001E04FF264
S31508003450244006B070BD00BF68E4000800100240B2
S3150800346000127A0000093D00ABAAAAAAF0B583B0FB
S3150800347000263446D5E00122A2400B6813409A4242
S3150800348040F0CE804D68122D2DD00BD8022D27D0B6
S3150800349003D85DB3012D1ED035E0032D30D0112D94
S315080034A01BD030E0614FBD4220D008D8A7F5801761
S315080034B0BD421BD007F58037BD4224D116E05C4FCC
S315080034C0BD4213D007F58037BD420FD0A7F5801748
S315080034D0BD4218D10AE0CE6815E0CE68043612E07F
S315080034E0CE6808360FE0CE680C360CE08D684DB114
S315080034F0012D02D10261082605E04261082602E094
S31508003500002600E00426FF2B01D8864601E000F1DC
S31508003510040EFF2B01D8A20002E0A4F108029200D3
S31508003520DEF800700F25954027EA050506FA02F22F
S315080035302A43CEF800204A6812F0805F70D03D4AD0
S31508003540956945F001059561926902F001020192BB
S31508003550019AA708BD1C384A52F8255004F0030200
S3150800356092004FF00F0E0EFA02FE25EA0E0E334DAC
S31508003570A8420DD005F58065A8420BD005F58065F3
S31508003580A84209D005F58065A84207D1032506E0BB
S31508003590002504E0012502E0022500E0042505FADD
S315080035A002F24EEA02020237234D45F827204A68FE
S315080035B012F4803F05D005F580652A681A432A600B
S315080035C004E01F4D2A6822EA03022A604A6812F4B8
S315080035D0003F04D01A4D6A681A436A6004E0184D21
S315080035E06A6822EA03026A604A6812F4801F04D0F5
S315080035F0134DAA681A43AA6004E0114DAA6822EA84
S315080036000302AA604A6812F4001F04D00C4DEA6847
S315080036101343EB6004E00A4DEA6822EA0303EB6011
S3150800362001340F2C7FF627AF03B0F0BD0000211040
S31508003630000031100010024000000140000801405F
S31508003640000401408368194201D001207047002018
S31508003650704700BF0AB101617047090401617047EC
S31508003660C3685940C160704770B4C56B066C0124C5
S31508003670B4406C60046863604368102B04D1036827
S315080036809A600368D96003E0036899600368DA60A2
S3150800369070BC704758B310B403460068164A024413
S315080036A01649A1FB0212120992001A64144ADA6337
S315080036B0022283F82120026822F47F5121F030018A
S315080036C05C689A681443DA6814431A6914435A6999
S315080036D014439A691443DA6922430A4302600020B4
S315080036E09863012283F8212083F8200001E0012055
S315080036F0704710BC704700BFF8FFFDBFCDCCCCCCDF
S315080037000000024038B590F82040012C32D0012440
S3150800371080F8204090F82140012C26D1044602204A
S3150800372084F821000020A0632568286820F001009D
S3150800373028602046FFF798FFE36A2BB122681368D2
S3150800374043F00E03136009E02268136823F00403AC
S3150800375013602268136843F00A031360226813682B
S3150800376043F001031360002038BD002380F82030A1
S31508003770022038BD022038BD08B590F82130022B4A
S3150800378003D004238363012008BD0268136823F06D
S315080037900E0313600268136823F0010313600368BD
S315080037A0194A934211D01432934210D014329342DC
S315080037B00FD0143293420FD0143293420FD01432E2
S315080037C093420FD14FF480120EE001220CE0102232
S315080037D00AE04FF4807207E04FF4805204E04FF499
S315080037E0803201E04FF08072084B5A60012380F85E
S315080037F02130002380F82030436B13B1984700200E
S3150800380008BD002008BD00BF0800024000000240B5
S3150800381038B5C36B1A6804682568016C04238B40A5
S315080038201A4236D015F0040F33D0236813F0200F50
S3150800383003D1236823F0040323600368434A9342B1
S3150800384011D01432934210D0143293420FD014324E
S3150800385093420FD0143293420FD0143293420FD1B1
S315080038604FF480020EE004220CE040220AE04FF4F6
S31508003870806207E04FF4804204E04FF4802201E0C2
S315080038804FF08062324B5A60C36A002B5CD098476F
S3150800389038BD02238B401A423BD015F0020F38D0B0
S315080038A0236813F0200F06D1236823F00A03236048
S315080038B0012380F821300368244A934211D0143238
S315080038C0934210D0143293420FD0143293420FD041
S315080038D0143293420FD0143293420FD14FF4001290
S315080038E00EE002220CE020220AE04FF4007207E004
S315080038F04FF4005204E04FF4003201E04FF000723A
S31508003900134B5A60002380F82030836AE3B1984746
S3150800391038BD082303FA01F10A4215D015F0080F3D
S3150800392012D0236823F00E032360C16B026C0123B7
S3150800393003FA02F24A60836380F82130002380F894
S315080039402030036B03B1984738BD00BF080002401A
S3150800395000000240074AD36823F4E0631B041B0CEB
S31508003960000200F4E060184340F0BF6040F4003005
S31508003970D060704700ED00E030B4164BDB68C3F347
S315080039800223C3F10704042C28BF04241D1D062D99
S3150800399001D9DD1E00E00025012303FA04F4013CE9
S315080039A02140A940AB40013B1A400A43002806DAE9
S315080039B000F00F001201D2B2074B1A5407E01201A9
S315080039C0D2B200F1604000F5614080F8002330BCB7
S315080039D0704700BF00ED00E014ED00E0420900F07A
S315080039E01F00012303FA00F0014B43F82200704739
S315080039F000E100E00F4B1A6842F001021A605968AC
S31508003A000D4A0A405A601A6822F0847222F48032FB
S31508003A101A601A6822F480221A605A6822F4FE0292
S31508003A205A604FF41F029A604FF00062034B9A6087
S31508003A30704700BF001002400000FFF800ED00E0EC
S31508003A40704700BF034B0360034B0B608023136072
S31508003A50704700BFD40F0020D4090020034B036031
S31508003A60034B0B604FF480731360704728100020D7
S31508003A70D40B002000B589B0002201461C20FFF7B0
S31508003A807BFF1C20FFF7AAFF154BDA6942F00102FB
S31508003A90DA61DB6903F001030193019B02A903A81C
S31508003AA0FFF7B8FBFFF796FB40000E4BA3FB00237E
S31508003AB09B0C013B0C484FF08042026040F2E73213
S31508003AC0C2604360002303618360FEF795FE18B960
S31508003AD00548FEF7FDFC00E0012009B05DF804FB8F
S31508003AE00010024083DE1B436832002008B5436A93
S31508003AF09A6A12F0500F1CD19A6A42F400729A62BE
S31508003B001A68926802F46022B2F5602F0DD1DA685D
S31508003B105AB99A6A22F480729A629A6A12F4805F93
S31508003B2003D19A6A42F001029A62184604F058FDD7
S31508003B3008BD1B6A1B6B984708BD00BF08B5406ADD
S31508003B4004F02EFD08BD00BF704700BF08B5406AE7
S31508003B50836A43F040038362C36A43F00403C36283
S31508003B60FFF7F2FF08BD00BF70B483B000230193CE
S31508003B7090F82430012B00F08880012380F8243047
S31508003B804B68062B0ED80668756B03EB8303053B5B
S31508003B901F249C4025EA04040A6802FA03F3234317
S31508003BA073631EE00C2B0ED805682A6B03EB8303A0
S31508003BB0233B1F249C4022EA04040A6802FA03F302
S31508003BC023432B630DE00568EA6A03EB8303413B55
S31508003BD01F249C4022EA04040A6802FA03F32343DA
S31508003BE0EB620B68092B0ED90668F56803EB4303ED
S31508003BF01E3B07249C4025EA04048A6802FA03F35C
S31508003C002343F3600CE00668356903EB4303072496
S31508003C109C4025EA04048A6802FA03F323433361C5
S31508003C200B68103B012B26D803681A4A93421CD10D
S31508003C309A6812F4000F20D19A6842F400029A603A
S31508003C400B68102B1BD1144B1B68144AA2FB0323C9
S31508003C509B0C03EB83035A00019202E0019B013B94
S31508003C600193019B002BF9D10AE0836A43F02003F4
S31508003C708362012304E0002302E0002300E000231E
S31508003C80002280F82420184600E0022003B070BC09
S31508003C90704700BF002401400400002083DE1B4358
S31508003CA030B583B00023019303689A6812F0010FB8
S31508003CB02FD19A6842F001029A60174B1B68174A7F
S31508003CC0A2FB03239B0C019302E0019B013B01939A
S31508003CD0019B002BF9D10446FEF74EFF054611E07D
S31508003CE0FEF74AFF401B02280CD9A36A43F01003CB
S31508003CF0A362E36A43F00103E362002384F82430F5
S31508003D00012007E023689B6813F0010FE8D0002024
S31508003D1000E0002003B030BD0400002083DE1B4312
S31508003D20F8B504684A4DAC4203D005F58065AC4247
S31508003D3005D1474B5B6813F4702F40F0858090F8E7
S31508003D402440012C00F0828017460E4604460123C3
S31508003D5080F82430FFF7A4FF0546002870D1A36A2F
S31508003D6023F4706323F0010343F48073A36222688B
S31508003D70384B9A4205D1A3F580635B6813F4702F1C
S31508003D800ED1A36A23F48013A362536813F4806FD9
S31508003D901CD0A36A23F4405343F48053A36215E06E
S31508003DA0A36A43F48013A362294B9A4203D003F50E
S31508003DB080639A420AD1264B5B6813F4806F05D05C
S31508003DC0A36A23F4405343F48053A362A36A13F40B
S31508003DD0805F04D0E36A23F00603E36201E0002370
S31508003DE0E362002384F82430236A1B4A9A62236A12
S31508003DF01A4ADA62236A1A4A1A6323686FF00202B9
S31508003E001A602268936843F48073936021683B467E
S31508003E1032464C31206AFFF775FC2268936803F432
S31508003E206023B3F5602F05D1936843F4A00393602C
S31508003E302846F8BD936843F4801393602846F8BD76
S31508003E40002384F82430F8BD0120F8BD0220F8BD0F
S31508003E500024014000280140ED3A00083D3B0008D7
S31508003E604D3B000838B503689A6812F0010F1ED05A
S31508003E7004469A6822F001029A60FEF77DFE05461E
S31508003E800EE0FEF779FE401B022809D9A36A43F023
S31508003E901003A362E36A43F00103E362012038BD1D
S31508003EA023689B6813F0010FEBD1002038BD002072
S31508003EB038BD00BF00287DD038B50446836A23B9CB
S31508003EC0C36280F82430FEF779F82046FFF7CAFF68
S31508003ED0A36A13F0100F67D1002865D1A36A23F4EB
S31508003EE0885323F0020343F00203A3626268E3697E
S31508003EF01343E16843EA4103A268B2F5807F04D020
S31508003F00012A05D14FF4807503E04FF4807500E06F
S31508003F1000256269012A0FD131B9A269013A45EA39
S31508003F20423242F4006507E0A26A42F02002A26229
S31508003F30E26A42F00102E26221684A6822F46942B2
S31508003F402A434A6021688D681B4A2A401A438A60B8
S31508003F50A268B2F5807F01D0012A03D12269013A0D
S31508003F60110500E000212568EA6A22F470020A4376
S31508003F70EA6222689168114A0A40934208D10023EE
S31508003F80E362A36A23F0030343F00103A36238BD87
S31508003F90A36A23F0120343F01003A362E36A43F013
S31508003FA00103E362012038BDA36A43F01003A3624C
S31508003FB0012038BD01207047FDF7E1FFFE0E1FFF07
S31508003FC070B582B00023019390F82430012B69D094
S31508003FD00446012380F82430FFF744FF05460028ED
S31508003FE05BD1A36A23F4885323F0020343F0020348
S31508003FF0A3622E4B1E680220FFF7B4F9B6FBF0F059
S315080040004000019002E0019B013B0193019B002BBC
S31508004010F9D12046FFF744FE2268936843F0080367
S315080040209360FEF7A9FD06460FE0FEF7A5FD801B87
S315080040300A280AD9A36A23F0120343F01003A362DD
S31508004040002384F8243001202DE023689A6812F0B2
S31508004050080FEAD19A6842F004029A60FEF78CFDCE
S3150800406006460FE0FEF788FD801B0A280AD9A36AD0
S3150800407023F0120343F01003A362002384F82430CC
S31508004080012010E023689B6813F0040FEAD1A36AA5
S3150800409023F0030343F00103A362002384F82430CA
S315080040A0284600E0022002B070BD00BF04000020D0
S315080040B0002800F0A48038B5044690F8203013F0A4
S315080040C0FF0F01D1FDF7C6FF2268136823F002032C
S315080040D01360FEF751FD05460DE0FEF74DFD401B4A
S315080040E00A2808D9636A43F400336362052384F80F
S315080040F02030012038BD23685A6812F0020FECD12F
S315080041001A6842F001021A60FEF736FD05460DE010
S31508004110FEF732FD401B0A2808D9636A43F40033C8
S315080041206362052384F82030012038BD23685A6865
S3150800413012F0010FECD0227E012A04D11A6842F04F
S3150800414080021A6003E01A6822F080021A60637E11
S31508004150012B05D12268136843F04003136004E07D
S315080041602268136823F040031360A37E012B05D150
S315080041702268136843F02003136004E0226813687A
S3150800418023F020031360E37E012B05D12268136810
S3150800419023F01003136004E02268136843F0100349
S315080041A01360237F012B05D12268136843F00803A7
S315080041B0136004E02268136823F008031360637F22
S315080041C0012B05D12268136843F00403136004E049
S315080041D02268136823F0040313602168A268E36861
S315080041E01A4323691A4363691A436368013B1343F5
S315080041F0CB6100206062012384F8203038BD01209D
S31508004200704700BF026890F82030013BDBB2012BF3
S315080042106DD870B4D2F8003243F00103C2F8003208
S315080042204B6903F01F03012000FA03F3D2F81C02BE
S31508004230DC432040C2F81C02C869A8B9D2F80C02AF
S315080042402040C2F80C024869CE688D8845EA0645C2
S31508004250483042F8305048698E680D8845EA064568
S31508004260483002EBC0004560C869012815D1D2F86C
S315080042700C021843C2F80C0248690E688D8845EA94
S315080042800645483042F8305048698E688D8945EAB7
S315080042900645483002EBC0004560886928B9D2F85F
S315080042A004022040C2F8040204E0D2F804021843CB
S315080042B0C2F80402086928B9D2F814020440C2F800
S315080042C0144204E0D2F814021843C2F81402096A28
S315080042D0012904D1D2F81C120B43C2F81C32D2F8B9
S315080042E0003223F00103C2F80032002005E0436AD9
S315080042F043F4802343620120704770BC704700BFB7
S3150800430038B590F82030DBB2012B22D104460223BF
S3150800431080F820300268136823F001031360FEF763
S315080043202BFC05460DE0FEF727FC401B0A2808D99A
S31508004330636A43F400336362052384F8203001205E
S3150800434038BD23685B6813F0010FECD1002060626A
S3150800435038BD436A43F400234362012038BD00BFD9
S3150800436070B490F820400568AD68013CE4B2012CB1
S3150800437062D815F0E05F59D0C5F30165022D05D95D
S31508004380436A43F40003436201205AE00124AC4027
S315080043901C608B684BB904680E68CB6843EA4656BE
S315080043A005F118031B01E65009E006684C6843EA64
S315080043B0C403CC68234305F1180424013351036868
S315080043C00C6905F1180603EB06135C600B7D012BDF
S315080043D006D1036803EB0613596841F480715960E6
S315080043E00168D47993791B0443EA0463547943EA50
S315080043F00423147923432C012144C1F88C31016824
S31508004400D67893781B0443EA0663567843EA06236C
S31508004410127813432144C1F88831026818352D01F2
S31508004420535943F00103535100200AE0436A43F409
S3150800443000134362012004E0436A43F48023436285
S31508004440012070BC704700BF90F82030013BDBB2FA
S31508004450012B19D811F0010F04D00268936843F0B4
S315080044608003936011F0020F04D00268936843F446
S315080044700043936011F0040F0CD00268936843F46C
S315080044800003936000207047436A43F48023436225
S31508004490012070470020704730B490F82040013C56
S315080044A0E4B2012C00F28A8051B90468E46814F079
S315080044B0030F10D1436A43F400134362012082E0DC
S315080044C00468246914F0030F05D1436A43F4001302
S315080044D04362012077E0056801F11B0424012C5989
S315080044E004F0040494603CB9056801F11B04240136
S315080044F02C59640D146006E0056801F11B042401BB
S315080045002C59E4085460056801F11B0424012D594F
S31508004510C5F34005D560056825446D6805F00F05A7
S315080045201561056825446D68C5F307259561056815
S315080045302C446468240C546104680A011444D4F8B1
S31508004540B8411C7004681444D4F8B841C4F307246D
S315080045505C7004681444D4F8B841C4F307449C70EA
S3150800456004681444D4F8B841240EDC700468144472
S31508004570D4F8BC411C7104681444D4F8BC41C4F393
S3150800458007245C7104681444D4F8BC41C4F3074496
S315080045909C7104682244D2F8BC21120EDA7131B932
S315080045A00268D36843F02003D36000200BE002685A
S315080045B0136943F020031361002004E0436A43F4BF
S315080045C080234362012030BC704700BF90F820303A
S315080045D0013BDBB2012B05D803685A6911435961BF
S315080045E000207047436A43F48023436201207047E2
S315080045F0704700BF704700BF704700BF704700BFD5
S31508004600704700BF704700BF704700BF704700BFC4
S315080046102DE9F84F054603685C695F689E68D3F81C
S315080046200C90D3F81080D3F818A014F0010F5AD0C4
S3150800463016F0010F14D001229A6016F0020F04D06A
S3150800464003F04EF94FF0000B12E016F0040F0AD1F2
S3150800465016F0080F0AD103F083F94FF0000B07E0B4
S315080046604FF0000B04E04FF4006B01E04FF4805B61
S3150800467016F4807F19D02B684FF480729A6016F46E
S31508004680007F03D02846FFF7B3FF0EE016F4806FCD
S3150800469002D04BF4005B08E016F4006F02D04BF42E
S315080046A0804B02E02846FFF7A7FF16F4803F1CD090
S315080046B02B684FF480329A6016F4003F03D02846E0
S315080046C0FFF798FF11E016F4802F02D04BF4004B49
S315080046D00BE016F4002F02D04BF4803B05E0284689
S315080046E0FFF78CFF01E04FF0000B14F0080F07D01E
S315080046F019F0100F04D04BF4007B2B681022DA60F7
S3150800470014F0040F08D019F0080F05D02B680822FA
S31508004710DA602846FFF774FF14F0020F07D02B68FB
S31508004720DB6813F0030F02D0284603F05BF914F098
S31508004730400F07D018F0100F04D04BF4806B2B688D
S3150800474010221A6114F0200F08D018F0080F05D0AF
S315080047502B6808221A612846FFF754FF14F0100F39
S3150800476007D02B681B6913F0030F02D0284603F005
S315080047703FF914F4003F08D017F0100F05D02B6846
S3150800478010225A602846FFF73FFF14F4803F08D0EE
S3150800479017F0080F05D02B6808225A602846FFF73D
S315080047A035FF14F4004F4ED017F0040F48D014F418
S315080047B0807F04D01AF0010F01D04BF0010B14F4DE
S315080047C0007F04D01AF0020F01D04BF0020B14F44C
S315080047D0806F04D01AF0040F01D04BF0040B14F4C8
S315080047E0006F2DD01AF0700A2AD0BAF1300F17D000
S315080047F006D8BAF1100F0DD0BAF1200F0DD01AE075
S31508004800BAF1500F12D0BAF1600F12D0BAF1400FB8
S3150800481011D108E04BF0080B0DE04BF0100B0AE045
S315080048204BF0200B07E04BF0400B04E04BF0800BFD
S3150800483001E04BF4807B2A68936923F07003936147
S315080048402B6804225A60BBF1000F06D06B6A4BEA4C
S3150800485003036B62284603F08DF8BDE8F88F00BFA6
S315080048600268D36823F0C003D360202380F8393068
S31508004870704700BF0268D36823F49073D360026858
S31508004880536923F001035361202380F83A307047B7
S3150800489090F83930DBB2212B2BD18368B3F5805FD2
S315080048A00FD1036A02681B88C3F3080353600369C0
S315080048B01BB9036A0233036209E0036A0133036220
S315080048C005E00268036A591C01621B785360C38CB1
S315080048D09BB2013B9BB2C3846BB90268D36823F0D1
S315080048E08003D3600268D36843F04003D360002096
S315080048F07047022070470020704700BF2DE9F84333
S31508004900814601680B6923F44052C36813430B615F
S31508004910816803691943436919430068C26822F428
S31508004920B05323F00C030B43C360D9F800104B694E
S3150800493023F44072D9F8183013434B61D9F8005064
S315080049405B4B9D4259D1FEF755FC00EB800000EB0E
S315080049508000D9F80440A400B0FBF4F4554EA6FB39
S31508004960043464092401FEF745FC00EB800000EBE3
S315080049708000D9F804309B00B0FBF3F7FEF73AFC49
S3150800498000EB800000EB8000D9F804309B00B0FBF8
S31508004990F3F3A6FB03235B094FF0640808FB1373C4
S315080049A01B013233A6FB03235B0903F0F0031C4407
S315080049B0FEF720FC00EB800000EB8000D9F80430FD
S315080049C09B00B0FBF3F7FEF715FC00EB800000EB4D
S315080049D08000D9F804309B00B0FBF3F3A6FB032351
S315080049E05B0908FB13731B013233A6FB0323C3F3CE
S315080049F043131C44AC60BDE8F883FEF7EBFB00EB01
S31508004A00800000EB8000D9F80440A400B0FBF4F461
S31508004A10284EA6FB043464092401FEF7DBFB00EBF1
S31508004A20800000EB8000D9F804309B00B0FBF3F758
S31508004A30FEF7D0FB00EB800000EB8000D9F80430CD
S31508004A409B00B0FBF3F3A6FB03235B094FF0640856
S31508004A5008FB13731B013233A6FB03235B0903F020
S31508004A60F0031C44FEF7B6FB00EB800000EB800069
S31508004A70D9F804309B00B0FBF3F7FEF7ABFB00EB6D
S31508004A80800000EB8000D9F804309B00B0FBF3F3FC
S31508004A90A6FB03235B0908FB13731B013233A6FB32
S31508004AA00323C3F343131C44AC60BDE8F88300BF7B
S31508004AB0003801401F85EB5168B310B5044690F8DD
S31508004AC0393013F0FF0F04D1002380F83830FDF792
S31508004AD095FB242384F839302268D36823F40053DD
S31508004AE0D3602046FFF70AFF2268136923F4904330
S31508004AF013612268536923F02A0353612268D36835
S31508004B0043F40053D3600020E063202384F839304F
S31508004B1084F83A3010BD0120704700BF90F839304C
S31508004B20DBB2202B16D1B9B1C2B190F83830012BBF
S31508004B3016D001628284C2840023C363212280F8CE
S31508004B40392080F838300168CA6842F08002CA60A5
S31508004B5018467047022070470120704701207047A9
S31508004B600220704790F83A30DBB2202B20D109B3E7
S31508004B7012B390F83830012B20D081628285C28525
S31508004B800023C363222280F83A2080F8383001686F
S31508004B90CA6842F48072CA6001684A6942F0010232
S31508004BA04A610168CA6842F02002CA60184670471E
S31508004BB00220704701207047012070470220704785
S31508004BC038B590F83940E4B2202C31D1002931D0DB
S31508004BD0002A31D090F83830012B2FD013460446DE
S31508004BE0012280F8382001628384C3840025C563C6
S31508004BF0212280F83920026B11489062226B1148F5
S31508004C00D062226B10481063226B55632268043207
S31508004C10206BFEF777FD23686FF040021A6084F870
S31508004C2038502268536943F080035361284638BDDB
S31508004C30022038BD012038BD012038BD022038BD0C
S31508004C40F54C0008454D00083D4E000830B583B0C8
S31508004C5090F83A40E4B2202C3DD100293DD0002AF4
S31508004C603DD090F83830012B3BD013460A4604460F
S31508004C70012180F83810826283850025C5632221C8
S31508004C8080F83A10416B18488862616B1748C86209
S31508004C90616B17480863616B4D6321680431606B6B
S31508004CA0FEF730FD019523681A6801925A68019249
S31508004CB0019A84F83850DA6842F48072DA60226819
S31508004CC0536943F0010353612268536943F0400373
S31508004CD05361284606E0022004E0012002E0012094
S31508004CE000E0022003B030BD514D0008314E0008E7
S31508004CF03D4E000808B5436A0268126812F0200F94
S31508004D000CD10022DA8419684A6922F080024A61C5
S31508004D101A68D36843F04003D36008BD184602F00A
S31508004D203FFB08BD08B50168CB6823F04003CB609C
S31508004D30202380F8393002F033FB002008BD00BF7D
S31508004D40704700BF08B5406AFFF7FAFF08BD00BF05
S31508004D5008B5436A0268126812F0200F13D10022C0
S31508004D60DA851968CA6822F48072CA6019684A69BD
S31508004D7022F001024A6119684A6922F040024A6132
S31508004D80202283F83A20184603F092F808BD00BF9F
S31508004D9008B590F83A30DBB2222B44D18368B3F5D4
S31508004DA0805F13D1826A036943B903685B68C3F3FA
S31508004DB008031380836A0233836218E003685B681A
S31508004DC0DBB21380836A0133836210E0036933B967
S31508004DD0836A5A1C8262026852681A7007E0826AFD
S31508004DE0531C836203685B6803F07F031370C38DEB
S31508004DF09BB2013B9BB2C385BBB90268D36823F05B
S31508004E002003D3600268D36823F48073D3600268F2
S31508004E10536923F001035361202380F83A3003F0E5
S31508004E2047F8002008BD022008BD002008BD00BFC5
S31508004E3008B5406A03F072F808BD00BF10B5446AA9
S31508004E4023685B6903F0800294F83930DBB2212BC2
S31508004E5005D122B10023E3842046FFF701FD23682C
S31508004E605B6903F0400294F83A30DBB2222B05D195
S31508004E7022B10023E3852046FFF7FCFCE36B43F0F1
S31508004E801003E363204603F04DF810BD10B5044641
S31508004E9002681368D168526913F00F0009D113F03C
S31508004EA0200F06D011F0200F03D02046FFF770FF21
S31508004EB010BD002862D012F0010202D111F4907FD1
S31508004EC05CD013F0010F06D011F4807F03D0E06B9D
S31508004ED040F00100E06313F0040F04D01AB1E06B50
S31508004EE040F00200E06313F0020F04D01AB1E06B41
S31508004EF040F00400E06313F0080F04D01AB1E26B27
S31508004F0042F00802E263E26B002A4AD013F0200F4F
S31508004F1005D011F0200F02D02046FFF739FF23688D
S31508004F205B6903F04003E26B12F0080F00D1FBB196
S31508004F302046FFF79FFC23685A6912F0400F13D0EA
S31508004F405A6922F040025A61636B4BB1154A5A639B
S31508004F50606BFEF711FC20B3606B436B984710BD7E
S31508004F60204602F0DFFF10BD204602F0DBFF10BD31
S31508004F70204602F0D7FF0023E36310BD13F0800F2D
S31508004F8006D011F0800F03D02046FFF781FC10BD34
S31508004F9013F0400F05D011F0400F02D02046FFF75E
S31508004FA0C1FE10BDA94F000808B5406A0023C38595
S31508004FB0C38402F0B7FF08BD00F1080343604FF051
S31508004FC0FF328260C360036100230360704700BF3D
S31508004FD000230361704700BF43684B609A688A6084
S31508004FE09A685160996008610368013303607047E5
S31508004FF030B40D68B5F1FF3F01D1026907E000F151
S31508005000080200E01A4653681C68A542FAD253689B
S315080050104B6099608A6051600861036801330360D8
S3150800502030BC70470369426881689160826841684C
S3150800503051605A68904201D182685A600022026122
S31508005040186801381860704710B5044602F002F86F
S31508005050A26BE36B9A4201D1012400E0002402F01E
S315080050601BF8204610BD00BF10B5044601F0F2FF3C
S31508005070A36B0BB9012400E0002402F00DF82046CA
S3150800508010BD00BF70B504461646856B026C3AB96A
S31508005090036843BB406801F005FA0023636029E012
S315080050A06EB98068FBF762F8A268236C1344A360A4
S315080050B06268934219D32368A36000201AE0C06887
S315080050C0FBF754F8236C5B42E2681A44E2602168F5
S315080050D08A4202D262681344E360022E07D145B1C0
S315080050E0013D002006E0002004E0002002E0002048
S315080050F000E000200135A56370BD00BF026C72B1E7
S3150800510010B50346C4681444C4604068844201D399
S315080051101868D8600846D968FBF728F810BD7047A4
S3150800512038B5054601F096FF95F8454064B20AE0A1
S315080051306B6A53B105F1240001F09CF808B101F03F
S3150800514035F9013C64B2002CF2DCFF2385F84530C2
S3150800515001F0A2FF01F07EFF95F8444064B20AE030
S315080051602B6953B105F1100001F084F808B101F07C
S315080051701DF9013C64B2002CF2DCFF2385F84430AB
S3150800518001F08AFF38BD00BF38B540B94FF050036B
S3150800519083F31188BFF36F8FBFF34F8FFEE7044683
S315080051A00D4601F057FF2168E26B236C03FB0210E2
S315080051B060600020A063A160013A02FB0313E3606C
S315080051C0FF2384F8443084F845307DB92369ABB1B0
S315080051D004F1100001F04EF880B14FF08052094BEF
S315080051E01A60BFF34F8FBFF36F8F07E004F110000B
S315080051F0FFF7E2FE04F12400FFF7DEFE01F04CFFA4
S31508005200012038BD04ED00E010B5029B0C4609B933
S315080052101B6000E01A60D8631C6401211846FFF77A
S31508005220B3FF10BD40B94FF0500383F31188BFF3A5
S315080052306F8FBFF34F8FFEE710B584B0044643B9AE
S315080052404FF0500383F31188BFF36F8FBFF34F8F6F
S31508005250FEE712B119B1012002E0012000E00020AA
S3150800526040B94FF0500383F31188BFF36F8FBFF334
S315080052704F8FFEE712B919B9012002E0012000E0BC
S31508005280002040B94FF0500383F31188BFF36F8FA6
S31508005290BFF34F8FFEE7482003900398482808D0AD
S315080052A04FF0500383F31188BFF36F8FBFF34F8F0F
S315080052B0FEE720461C463BB1012384F8463000949D
S315080052C09DF81830FFF7A0FF204604B010BD00BFB8
S315080052D040B94FF0500383F31188BFF36F8FBFF3C4
S315080052E04F8FFEE7F0B583B0034611B101FB00F01E
S315080052F000E000201E4617460C46483001F092FD95
S31508005300054650B1002380F8463000903B4600F130
S31508005310480221463046FFF777FF284603B0F0BD1E
S31508005320F0B585B0019240B94FF0500383F3118868
S31508005330BFF36F8FBFF34F8FFEE7044619B9026CB0
S315080053401AB9012202E0012200E0002242B94FF018
S31508005350500383F31188BFF36F8FBFF34F8FFEE7B8
S31508005360022B03D1E26B012A02D102E0012200E0FE
S31508005370002242B94FF0500383F31188BFF36F8FB1
S31508005380BFF34F8FFEE71D460E4601F027F818B902
S31508005390019B1BB9012302E0012300E0002343B966
S315080053A04FF0500383F31188BFF36F8FBFF34F8F0E
S315080053B0FEE7002701F04EFEA26BE36B9A4201D38B
S315080053C0022D21D12A4631462046FFF75BFE636A45
S315080053D06BB104F1240000F04DFF88B14FF0805204
S315080053E0324B1A60BFF34F8FBFF36F8F08E038B1A7
S315080053F04FF080522D4B1A60BFF34F8FBFF36F8F5C
S3150800540001F04AFE01204EE0019B1BB901F044FE63
S31508005410002048E01FB902A800F072FF012701F03A
S315080054203BFE00F0A5FC01F015FE94F844305BB293
S31508005430B3F1FF3F02D1002384F8443094F8453095
S315080054405BB2B3F1FF3F02D1002384F8453001F087
S3150800545023FE01A902A800F069FFF0B92046FFF76C
S31508005460F3FDA0B1019904F1100000F0CFFE20462B
S31508005470FFF756FE00F01CFD00289BD14FF0805226
S315080054800A4B1A60BFF34F8FBFF36F8F92E7204620
S31508005490FFF746FE00F00CFD8CE72046FFF740FEBE
S315080054A000F006FD002005B0F0BD00BF04ED00E0E9
S315080054B02DE9F84340B94FF0500383F31188BFF341
S315080054C06F8FBFF34F8FFEE7044619B9006C18B902
S315080054D0012002E0012000E0002040B94FF050030F
S315080054E083F31188BFF36F8FBFF34F8FFEE7022B4D
S315080054F003D1E06B012802D102E0012000E0002080
S3150800550040B94FF0500383F31188BFF36F8FBFF391
